:0400000090EF02F08B
:08000800046ED8CF05F0E0CF33
:1000100006F00001E9CF0CF0EACF07F0E1CF08F0DD
:10002000E2CF09F0D9CF0AF0DACF0BF0F3CF12F01C
:10003000F4CF13F0FACF14F0FBCF15F000C00EF0A0
:1000400001C00FF002C010F003C011F09DA22CEF10
:1000500000F09EB27AEF00F0A3A032EF00F0A4B05F
:1000600055EF00F00EC000F00FC001F010C002F01C
:1000700011C003F00CC0E9FF07C0EAFF078E08C0FB
:10008000E1FF09C0E2FF0AC0D9FF0BC0DAFF12C0CE
:10009000F3FF13C0F4FF14C0FAFF15C0FBFF0450B8
:1000A00006C0E0FF05C0D8FF1000756B61CF74F08B
:1000B000743775377437753774377537F80E7417AA
:1000C0006250E00B006E003A0032070E001600503E
:1000D0007411176E75C018F065500F0B196E17501C
:1000E000800804E1185202E1010E256E609EA49082
:1000F00032EF00F09D92010E4B6E4A2A9E9232EF33
:1001000000F04E38700B006ED89000361F0E6F1442
:1001100000106F6E6ECF00F0003A0030070B4E5C9F
:10012000F9E11200C00E70140409706E3F0E7014D5
:10013000706EF80E71140209716EC70E71142809E1
:10014000716E719C718EF80E72140509726E729C3C
:1001500046EF01F068C06FF067C06EF06D5352E07B
:100160006EC0E9FF6FC0EAFF69C0EFFF6E51D8B4FF
:100170006F076E076EC0E9FF6FC0EAFF6AC0EFFF4E
:100180006E51D8B46F076E076EC0E9FF6FC0EAFF0B
:100190006B51030BEF6E6EC0E9FF6FC0EAFF6BC0DF
:1001A00000F0003600360036F80E00160050E00B66
:1001B000EF10EF6E6EC0E9FF6FC0EAFFEF50080965
:1001C000EF6E6E51D8B46F076E076EC0E9FF6FC057
:1001D000EAFF6BC000F0003A0032070E0016005034
:1001E000070BEF6E6EC0E9FF6FC0EAFF6CC000F056
:1001F000003600360036F80E00160050F80BEF10EF
:10020000EF6E3FD06EC0E9FF6FC0EAFFEF6A6E513C
:10021000D8B46F076E076EC0E9FF6FC0EAFFEF6AE0
:100220006E51D8B46F076E076EC0E9FF6FC0EAFF6A
:1002300069C000F0003A0036E00E00160050E00BF6
:10024000EF6E6E51D8B46F076E076EC0E9FF6FC0D6
:10025000EAFF69C000F00032003200321F0E0016C3
:1002600000501F0BEF6E6EC0E9FF6FC0EAFF6AC05F
:1002700000F0003A0036E00E00160050E00BEF10E0
:10028000EF6E1200040E4E6E3CDF4CD7606A9F0E7C
:100290006014606E608460CF50FF739A7398739E91
:1002A000739C0F0E686F1B0E676F6C6B6B6B6A6BCA
:1002B000696B6D6B4FDF0F0E686F030E676F6C6BB2
:1002C0006B6B6A6B696B6D6B45DF0F0E686F070EAA
:1002D000676F6C6B6B6B6A6B696B6D6B3BDF0F0EE3
:1002E000686F1F0E676F6C6B6B6B6A6B696B6D6B06
:1002F00031DF0F0E686F0B0E676F6C6B6B6B6A6B89
:10030000696B6D6B27DF0F0E686F676F6C6B6B6BC4
:100310006A6B696B6D6B1EDF0F0E686F130E676F74
:100320006C6B6B6B6A6B696B6D6B14DF0F0E686FB8
:10033000170E676F6C6B6B6B6A6B696B6D6B0ADFAB
:100340009350FB0B0809936E4E6ADBDEADEF01F0B4
:10035000F29CF29EF2BEFDD795D7040E4E6ED1DE12
:10036000C00E70140109706E3F0E7014706EF80E9E
:1003700071140109716EC70E71142009716E719CA0
:10038000718EF80E72140109726E729C200E736EDB
:100390004E6AB7DEC150C00BC16EC050C00B02091F
:1003A000C06EC08EC280D8EF02F0EA6A590EE96EC4
:1003B000EF500DE0060E016E006A002EFED7012EF2
:1003C000FBD77B0E006E002EFED7EF2EF3D7120068
:1003D0000F0E656F660E646F0F0140B708D0F10E07
:1003E0006F1408096F6E0001666B1BD00F0130B7E8
:1003F00009D0F10E6F1406096F6E010E0001666FD1
:1004000010D00F0120B709D0F10E6F1404096F6EE0
:10041000020E0001666F05D00F01000E016E3BD089
:1004200000016051030B006EFC0E60140010606E42
:100430000F0E686F640E676F5CC06CF05BC06BF092
:100440005AC06AF059C069F061C06DF083DE5FC0C8
:1004500065FF659C62B1658C636B5F50635D14E200
:100460005DC0E9FF5EC0EAFFEFCF69F065C0EAFF5B
:1004700064C0E9FF69C0EFFF642BD8B4652B5D2A27
:10048000D8B45E2A632BE9D76086F10E6F146F6EC5
:10049000010E016E0F01000112001A6A206A1F6A24
:1004A0001E6A1BC01DF05C6A5B6A4FC05AF04EC0EA
:1004B00059F05E6A1D0E5D6E010E5F6E606B616BC2
:1004C000626B86DF1B2A020E596E6FDF94968B8655
:1004D000FEEF02F0226A9D0E216E55C023F056C039
:1004E00024F057C021F058C022F051C01FF052C074
:1004F00020F053C01DF054C01EF05C6A5B6A4FC010
:100500005AF04EC059F05E6A1D0E5D6E50C05FF02D
:10051000606B616B626B5CDF020E596E46DF12002E
:10052000F86AD09E078EB886080EAF6E020EB06EC7
:10053000A60EAC6E900EAB6E186A176A196A1A6A2C
:100540001B6A1C6A206A1F6A1E6A1D6A246A236A63
:10055000226A216A256A296A286A276A266A2D6A18
:100560002C6A2B6A2A6A316A306A2F6A2E6A356AC7
:10057000346A336A326A396A386A376A366A3D6A77
:100580003C6A3B6A3A6A3F6A3E6A416A406A436A29
:10059000426A456A446A476A466A496A486A4A6AD8
:1005A0004B6A4D6A4C6AC150C00B0F09C16ED0D660
:1005B000050E596EFADE9D82C00EF212200E05095C
:1005C000CA6EFA0ECB6E030E596EEFDEA3809492C4
:1005D0008B8260AE01D0609E0F0150AF01D0509F62
:1005E000252C39D0256A1A2A1C2C33D01A5003081E
:1005F00006E24F6AB00E4E6E00014FD70F014F6AF0
:10060000850E4E6E080E506E41C052F040C051F043
:100610003FC054F03EC053F045C056F044C055F0C2
:1006200043C058F042C057F0000154DF4F6A860EB5
:100630004E6E040E506E49C052F048C051F047C093
:1006400054F046C053F0566A556A586A576A42DFFA
:100650000F01010E1C6E4B5276E09D824B6A000E1C
:10066000016EC250C30B0110C26E200E006E002E30
:10067000FED700D00000C282C2B2FED7C3CF3EF088
:10068000C4CF3FF0040E016EC250C30B0110C26E06
:10069000200E006E002EFED700D00000C282C2B233
:1006A000FED7C3CF40F0C4CF41F0080E016EC25058
:1006B000C30B0110C26E200E006E002EFED700D0BC
:1006C0000000C282C2B2FED7C3CF42F0C4CF43F013
:1006D0000C0E016EC250C30B0110C26E200E006ED4
:1006E000002EFED700D00000C282C2B2FED7C3CF18
:1006F00044F0C4CF45F0280E016EC250C30B011068
:10070000C26E200E006E002EFED700D00000C28206
:10071000C2B2FED7C3CF48F0C4CF49F0200E016E5D
:10072000C250C30B0110C26E200E006E002EFED709
:1007300000D00000C282C2B2FED7C3CF46F0C4CF01
:0C07400047F094948B84000142D7030022
:020000040030CA
:0E00000000C2190E0006A1003FC03FE03F40C5
:00000001FF
;PIC18F2685
;CRC=17AA  CREATED="13-maig-22 22:18"
